{
  "contractName": "Reviews",
  "abi": [
    {
      "inputs": [],
      "payable": false,
      "stateMutability": "nonpayable",
      "type": "constructor"
    },
    {
      "anonymous": false,
      "inputs": [
        {
          "indexed": false,
          "internalType": "uint8",
          "name": "id",
          "type": "uint8"
        },
        {
          "indexed": false,
          "internalType": "string",
          "name": "content",
          "type": "string"
        },
        {
          "indexed": false,
          "internalType": "string",
          "name": "city",
          "type": "string"
        }
      ],
      "name": "ReviewCreated",
      "type": "event"
    },
    {
      "constant": true,
      "inputs": [],
      "name": "reviewCount",
      "outputs": [
        {
          "internalType": "uint8",
          "name": "",
          "type": "uint8"
        }
      ],
      "payable": false,
      "stateMutability": "view",
      "type": "function"
    },
    {
      "constant": true,
      "inputs": [
        {
          "internalType": "uint8",
          "name": "",
          "type": "uint8"
        }
      ],
      "name": "reviews",
      "outputs": [
        {
          "internalType": "uint8",
          "name": "id",
          "type": "uint8"
        },
        {
          "internalType": "string",
          "name": "content",
          "type": "string"
        },
        {
          "internalType": "string",
          "name": "city",
          "type": "string"
        }
      ],
      "payable": false,
      "stateMutability": "view",
      "type": "function"
    },
    {
      "constant": false,
      "inputs": [
        {
          "internalType": "string",
          "name": "_content",
          "type": "string"
        },
        {
          "internalType": "string",
          "name": "_city",
          "type": "string"
        }
      ],
      "name": "createReview",
      "outputs": [],
      "payable": false,
      "stateMutability": "nonpayable",
      "type": "function"
    },
    {
      "constant": true,
      "inputs": [
        {
          "internalType": "uint8",
          "name": "_id",
          "type": "uint8"
        }
      ],
      "name": "getReviewsById",
      "outputs": [
        {
          "components": [
            {
              "internalType": "uint8",
              "name": "id",
              "type": "uint8"
            },
            {
              "internalType": "string",
              "name": "content",
              "type": "string"
            },
            {
              "internalType": "string",
              "name": "city",
              "type": "string"
            }
          ],
          "internalType": "struct Reviews.Review",
          "name": "",
          "type": "tuple"
        }
      ],
      "payable": false,
      "stateMutability": "view",
      "type": "function"
    }
  ],
  "bytecode": "0x608060405260008060006101000a81548160ff021916908360ff1602179055503480156200002c57600080fd5b50620000b26040518060400160405280600d81526020017f4d792046697273742044617070000000000000000000000000000000000000008152506040518060400160405280600c81526020017f4b75616c61204c756d7075720000000000000000000000000000000000000000815250620000b8640100000000026401000000009004565b620003a9565b60008081819054906101000a900460ff168092919060010191906101000a81548160ff021916908360ff1602179055505060405180606001604052806000809054906101000a900460ff1660ff16815260200183815260200182815250600160008060009054906101000a900460ff1660ff1660ff16815260200190815260200160002060008201518160000160006101000a81548160ff021916908360ff16021790555060208201518160010190805190602001906200017b929190620001ed565b5060408201518160020190805190602001906200019a929190620001ed565b509050507f305c4f9f74e2beb8cd6c1d15a55b17a85544eab06b0dd9e3f70f3339d530ce086000809054906101000a900460ff168383604051620001e193929190620002ee565b60405180910390a15050565b828054600181600116156101000203166002900490600052602060002090601f016020900481019282601f106200023057805160ff191683800117855562000261565b8280016001018555821562000261579182015b828111156200026057825182559160200191906001019062000243565b5b50905062000270919062000274565b5090565b6200029991905b80821115620002955760008160009055506001016200027b565b5090565b90565b6000620002a98262000339565b620002b5818562000344565b9350620002c781856020860162000362565b620002d28162000398565b840191505092915050565b620002e88162000355565b82525050565b6000606082019050620003056000830186620002dd565b81810360208301526200031981856200029c565b905081810360408301526200032f81846200029c565b9050949350505050565b600081519050919050565b600082825260208201905092915050565b600060ff82169050919050565b60005b838110156200038257808201518184015260208101905062000365565b8381111562000392576000848401525b50505050565b6000601f19601f8301169050919050565b610a4580620003b96000396000f3fe608060405234801561001057600080fd5b5060043610610069576000357c010000000000000000000000000000000000000000000000000000000090048063471eff041461006e578063627c2d42146100a0578063c5d666c3146100bc578063eff5924f146100ec575b600080fd5b610088600480360361008391908101906106ea565b61010a565b604051610097939291906108b5565b60405180910390f35b6100ba60048036036100b5919081019061067e565b610271565b005b6100d660048036036100d191908101906106ea565b6103a0565b6040516100e39190610833565b60405180910390f35b6100f461053a565b6040516101019190610855565b60405180910390f35b60016020528060005260406000206000915090508060000160009054906101000a900460ff1690806001018054600181600116156101000203166002900480601f0160208091040260200160405190810160405280929190818152602001828054600181600116156101000203166002900480156101c95780601f1061019e576101008083540402835291602001916101c9565b820191906000526020600020905b8154815290600101906020018083116101ac57829003601f168201915b505050505090806002018054600181600116156101000203166002900480601f0160208091040260200160405190810160405280929190818152602001828054600181600116156101000203166002900480156102675780601f1061023c57610100808354040283529160200191610267565b820191906000526020600020905b81548152906001019060200180831161024a57829003601f168201915b5050505050905083565b60008081819054906101000a900460ff168092919060010191906101000a81548160ff021916908360ff1602179055505060405180606001604052806000809054906101000a900460ff1660ff16815260200183815260200182815250600160008060009054906101000a900460ff1660ff1660ff16815260200190815260200160002060008201518160000160006101000a81548160ff021916908360ff160217905550602082015181600101908051906020019061033292919061054c565b50604082015181600201908051906020019061034f92919061054c565b509050507f305c4f9f74e2beb8cd6c1d15a55b17a85544eab06b0dd9e3f70f3339d530ce086000809054906101000a900460ff16838360405161039493929190610870565b60405180910390a15050565b6103a86105cc565b6000600160008460ff1660ff1681526020019081526020016000209050806040518060600160405290816000820160009054906101000a900460ff1660ff1660ff168152602001600182018054600181600116156101000203166002900480601f0160208091040260200160405190810160405280929190818152602001828054600181600116156101000203166002900480156104875780601f1061045c57610100808354040283529160200191610487565b820191906000526020600020905b81548152906001019060200180831161046a57829003601f168201915b50505050508152602001600282018054600181600116156101000203166002900480601f0160208091040260200160405190810160405280929190818152602001828054600181600116156101000203166002900480156105295780601f106104fe57610100808354040283529160200191610529565b820191906000526020600020905b81548152906001019060200180831161050c57829003601f168201915b505050505081525050915050919050565b6000809054906101000a900460ff1681565b828054600181600116156101000203166002900490600052602060002090601f016020900481019282601f1061058d57805160ff19168380011785556105bb565b828001600101855582156105bb579182015b828111156105ba57825182559160200191906001019061059f565b5b5090506105c891906105f0565b5090565b6040518060600160405280600060ff16815260200160608152602001606081525090565b61061291905b8082111561060e5760008160009055506001016105f6565b5090565b90565b600082601f83011261062657600080fd5b813561063961063482610927565b6108fa565b9150808252602083016020830185838301111561065557600080fd5b610660838284610998565b50505092915050565b600081359050610678816109eb565b92915050565b6000806040838503121561069157600080fd5b600083013567ffffffffffffffff8111156106ab57600080fd5b6106b785828601610615565b925050602083013567ffffffffffffffff8111156106d457600080fd5b6106e085828601610615565b9150509250929050565b6000602082840312156106fc57600080fd5b600061070a84828501610669565b91505092915050565b600061071e8261095e565b610728818561097a565b93506107388185602086016109a7565b610741816109da565b840191505092915050565b600061075782610953565b6107618185610969565b93506107718185602086016109a7565b61077a816109da565b840191505092915050565b600061079082610953565b61079a818561097a565b93506107aa8185602086016109a7565b6107b3816109da565b840191505092915050565b60006060830160008301516107d66000860182610815565b50602083015184820360208601526107ee828261074c565b91505060408301518482036040860152610808828261074c565b9150508091505092915050565b61081e8161098b565b82525050565b61082d8161098b565b82525050565b6000602082019050818103600083015261084d81846107be565b905092915050565b600060208201905061086a6000830184610824565b92915050565b60006060820190506108856000830186610824565b81810360208301526108978185610713565b905081810360408301526108ab8184610713565b9050949350505050565b60006060820190506108ca6000830186610824565b81810360208301526108dc8185610785565b905081810360408301526108f08184610785565b9050949350505050565b6000604051905081810181811067ffffffffffffffff8211171561091d57600080fd5b8060405250919050565b600067ffffffffffffffff82111561093e57600080fd5b601f19601f8301169050602081019050919050565b600081519050919050565b600081519050919050565b600082825260208201905092915050565b600082825260208201905092915050565b600060ff82169050919050565b82818337600083830152505050565b60005b838110156109c55780820151818401526020810190506109aa565b838111156109d4576000848401525b50505050565b6000601f19601f8301169050919050565b6109f48161098b565b81146109ff57600080fd5b5056fea365627a7a723158207744beacac60d7a11532a983b97259e63879b44ded7a3648174a6f5816f3888e6c6578706572696d656e74616cf564736f6c63430005100040",
  "source": "// SPDX-License-Identifier: MIT\npragma solidity >=0.4.22 <0.9.0;\npragma experimental ABIEncoderV2;\n\ncontract Reviews {\n  uint8 public reviewCount = 0;\n\n  struct Review {\n    uint8 id;\n    string content;\n    string city;\n  }\n\n  mapping(uint8 => Review) public reviews;\n  \n  event ReviewCreated(\n    uint8 id,\n    string content,\n    string city\n  );\n\n  constructor() public {\n    createReview(\"My First Dapp\", \"Kuala Lumpur\");\n  }\n\n  function createReview(string memory _content, string memory _city) public {\n    reviewCount++;\n    reviews[reviewCount] = Review(reviewCount, _content, _city);\n    emit ReviewCreated(reviewCount, _content, _city);\n  }\n\n\n  function getReviewsById(uint8 _id) public view returns (Review memory) {\n    Review storage rev = reviews[_id];\n    return rev;\n  }\n}\n",
  "sourcePath": "C:\\Users\\Jason\\Documents\\VS Code Projects\\delp\\contracts\\Reviews.sol",
  "compiler": {
    "name": "solc",
    "version": "0.5.16+commit.9c3226ce.Emscripten.clang"
  },
  "schemaVersion": "3.4.2",
  "updatedAt": "2021-09-05T09:23:28.834Z",
  "networkType": "ethereum",
  "devdoc": {
    "methods": {}
  },
  "userdoc": {
    "methods": {}
  }
}