{
  "contractName": "Reviews",
  "abi": [
    {
      "anonymous": false,
      "inputs": [
        {
          "indexed": false,
          "internalType": "uint8",
          "name": "id",
          "type": "uint8"
        },
        {
          "indexed": false,
          "internalType": "string",
          "name": "authorName",
          "type": "string"
        },
        {
          "indexed": false,
          "internalType": "string",
          "name": "authorAddress",
          "type": "string"
        },
        {
          "indexed": false,
          "internalType": "string",
          "name": "content",
          "type": "string"
        },
        {
          "indexed": false,
          "internalType": "string",
          "name": "date",
          "type": "string"
        },
        {
          "indexed": false,
          "internalType": "string",
          "name": "place",
          "type": "string"
        }
      ],
      "name": "ReviewCreated",
      "type": "event"
    },
    {
      "constant": true,
      "inputs": [],
      "name": "reviewCount",
      "outputs": [
        {
          "internalType": "uint8",
          "name": "",
          "type": "uint8"
        }
      ],
      "payable": false,
      "stateMutability": "view",
      "type": "function"
    },
    {
      "constant": true,
      "inputs": [
        {
          "internalType": "uint8",
          "name": "",
          "type": "uint8"
        }
      ],
      "name": "reviews",
      "outputs": [
        {
          "internalType": "uint8",
          "name": "id",
          "type": "uint8"
        },
        {
          "internalType": "string",
          "name": "authorName",
          "type": "string"
        },
        {
          "internalType": "string",
          "name": "authorAddress",
          "type": "string"
        },
        {
          "internalType": "string",
          "name": "content",
          "type": "string"
        },
        {
          "internalType": "string",
          "name": "date",
          "type": "string"
        },
        {
          "internalType": "string",
          "name": "place",
          "type": "string"
        }
      ],
      "payable": false,
      "stateMutability": "view",
      "type": "function"
    },
    {
      "constant": false,
      "inputs": [
        {
          "internalType": "string",
          "name": "_authorName",
          "type": "string"
        },
        {
          "internalType": "string",
          "name": "_authorAddress",
          "type": "string"
        },
        {
          "internalType": "string",
          "name": "_content",
          "type": "string"
        },
        {
          "internalType": "string",
          "name": "_date",
          "type": "string"
        },
        {
          "internalType": "string",
          "name": "_place",
          "type": "string"
        }
      ],
      "name": "createReview",
      "outputs": [],
      "payable": false,
      "stateMutability": "nonpayable",
      "type": "function"
    },
    {
      "constant": true,
      "inputs": [
        {
          "internalType": "uint8",
          "name": "_id",
          "type": "uint8"
        }
      ],
      "name": "getReviewsById",
      "outputs": [
        {
          "components": [
            {
              "internalType": "uint8",
              "name": "id",
              "type": "uint8"
            },
            {
              "internalType": "string",
              "name": "authorName",
              "type": "string"
            },
            {
              "internalType": "string",
              "name": "authorAddress",
              "type": "string"
            },
            {
              "internalType": "string",
              "name": "content",
              "type": "string"
            },
            {
              "internalType": "string",
              "name": "date",
              "type": "string"
            },
            {
              "internalType": "string",
              "name": "place",
              "type": "string"
            }
          ],
          "internalType": "struct Reviews.Review",
          "name": "",
          "type": "tuple"
        }
      ],
      "payable": false,
      "stateMutability": "view",
      "type": "function"
    }
  ],
  "bytecode": "0x608060405260008060006101000a81548160ff021916908360ff16021790555034801561002b57600080fd5b50610fde8061003b6000396000f3fe608060405234801561001057600080fd5b5060043610610069576000357c010000000000000000000000000000000000000000000000000000000090048063471eff041461006e57806353269d2d146100a3578063c5d666c3146100bf578063eff5924f146100ef575b600080fd5b61008860048036036100839190810190610bb7565b61010d565b60405161009a96959493929190610e0f565b60405180910390f35b6100bd60048036036100b89190810190610ac8565b61044e565b005b6100d960048036036100d49190810190610bb7565b6105ef565b6040516100e69190610d4e565b60405180910390f35b6100f761096f565b6040516101049190610d70565b60405180910390f35b60016020528060005260406000206000915090508060000160009054906101000a900460ff1690806001018054600181600116156101000203166002900480601f0160208091040260200160405190810160405280929190818152602001828054600181600116156101000203166002900480156101cc5780601f106101a1576101008083540402835291602001916101cc565b820191906000526020600020905b8154815290600101906020018083116101af57829003601f168201915b505050505090806002018054600181600116156101000203166002900480601f01602080910402602001604051908101604052809291908181526020018280546001816001161561010002031660029004801561026a5780601f1061023f5761010080835404028352916020019161026a565b820191906000526020600020905b81548152906001019060200180831161024d57829003601f168201915b505050505090806003018054600181600116156101000203166002900480601f0160208091040260200160405190810160405280929190818152602001828054600181600116156101000203166002900480156103085780601f106102dd57610100808354040283529160200191610308565b820191906000526020600020905b8154815290600101906020018083116102eb57829003601f168201915b505050505090806004018054600181600116156101000203166002900480601f0160208091040260200160405190810160405280929190818152602001828054600181600116156101000203166002900480156103a65780601f1061037b576101008083540402835291602001916103a6565b820191906000526020600020905b81548152906001019060200180831161038957829003601f168201915b505050505090806005018054600181600116156101000203166002900480601f0160208091040260200160405190810160405280929190818152602001828054600181600116156101000203166002900480156104445780601f1061041957610100808354040283529160200191610444565b820191906000526020600020905b81548152906001019060200180831161042757829003601f168201915b5050505050905086565b60008081819054906101000a900460ff168092919060010191906101000a81548160ff021916908360ff160217905550506040518060c001604052806000809054906101000a900460ff1660ff16815260200186815260200185815260200184815260200183815260200182815250600160008060009054906101000a900460ff1660ff1660ff16815260200190815260200160002060008201518160000160006101000a81548160ff021916908360ff1602179055506020820151816001019080519060200190610521929190610981565b50604082015181600201908051906020019061053e929190610981565b50606082015181600301908051906020019061055b929190610981565b506080820151816004019080519060200190610578929190610981565b5060a0820151816005019080519060200190610595929190610981565b509050507f72ab20aa9c0d77eb9d75205d31532ccab56d3ea97aff28649b4e9445ccd5d21f6000809054906101000a900460ff1686868686866040516105e096959493929190610d8b565b60405180910390a15050505050565b6105f7610a01565b6000600160008460ff1660ff1681526020019081526020016000209050806040518060c00160405290816000820160009054906101000a900460ff1660ff1660ff168152602001600182018054600181600116156101000203166002900480601f0160208091040260200160405190810160405280929190818152602001828054600181600116156101000203166002900480156106d65780601f106106ab576101008083540402835291602001916106d6565b820191906000526020600020905b8154815290600101906020018083116106b957829003601f168201915b50505050508152602001600282018054600181600116156101000203166002900480601f0160208091040260200160405190810160405280929190818152602001828054600181600116156101000203166002900480156107785780601f1061074d57610100808354040283529160200191610778565b820191906000526020600020905b81548152906001019060200180831161075b57829003601f168201915b50505050508152602001600382018054600181600116156101000203166002900480601f01602080910402602001604051908101604052809291908181526020018280546001816001161561010002031660029004801561081a5780601f106107ef5761010080835404028352916020019161081a565b820191906000526020600020905b8154815290600101906020018083116107fd57829003601f168201915b50505050508152602001600482018054600181600116156101000203166002900480601f0160208091040260200160405190810160405280929190818152602001828054600181600116156101000203166002900480156108bc5780601f10610891576101008083540402835291602001916108bc565b820191906000526020600020905b81548152906001019060200180831161089f57829003601f168201915b50505050508152602001600582018054600181600116156101000203166002900480601f01602080910402602001604051908101604052809291908181526020018280546001816001161561010002031660029004801561095e5780601f106109335761010080835404028352916020019161095e565b820191906000526020600020905b81548152906001019060200180831161094157829003601f168201915b505050505081525050915050919050565b6000809054906101000a900460ff1681565b828054600181600116156101000203166002900490600052602060002090601f016020900481019282601f106109c257805160ff19168380011785556109f0565b828001600101855582156109f0579182015b828111156109ef5782518255916020019190600101906109d4565b5b5090506109fd9190610a3a565b5090565b6040518060c00160405280600060ff16815260200160608152602001606081526020016060815260200160608152602001606081525090565b610a5c91905b80821115610a58576000816000905550600101610a40565b5090565b90565b600082601f830112610a7057600080fd5b8135610a83610a7e82610ec0565b610e93565b91508082526020830160208301858383011115610a9f57600080fd5b610aaa838284610f31565b50505092915050565b600081359050610ac281610f84565b92915050565b600080600080600060a08688031215610ae057600080fd5b600086013567ffffffffffffffff811115610afa57600080fd5b610b0688828901610a5f565b955050602086013567ffffffffffffffff811115610b2357600080fd5b610b2f88828901610a5f565b945050604086013567ffffffffffffffff811115610b4c57600080fd5b610b5888828901610a5f565b935050606086013567ffffffffffffffff811115610b7557600080fd5b610b8188828901610a5f565b925050608086013567ffffffffffffffff811115610b9e57600080fd5b610baa88828901610a5f565b9150509295509295909350565b600060208284031215610bc957600080fd5b6000610bd784828501610ab3565b91505092915050565b6000610beb82610ef7565b610bf58185610f13565b9350610c05818560208601610f40565b610c0e81610f73565b840191505092915050565b6000610c2482610eec565b610c2e8185610f02565b9350610c3e818560208601610f40565b610c4781610f73565b840191505092915050565b6000610c5d82610eec565b610c678185610f13565b9350610c77818560208601610f40565b610c8081610f73565b840191505092915050565b600060c083016000830151610ca36000860182610d30565b5060208301518482036020860152610cbb8282610c19565b91505060408301518482036040860152610cd58282610c19565b91505060608301518482036060860152610cef8282610c19565b91505060808301518482036080860152610d098282610c19565b91505060a083015184820360a0860152610d238282610c19565b9150508091505092915050565b610d3981610f24565b82525050565b610d4881610f24565b82525050565b60006020820190508181036000830152610d688184610c8b565b905092915050565b6000602082019050610d856000830184610d3f565b92915050565b600060c082019050610da06000830189610d3f565b8181036020830152610db28188610be0565b90508181036040830152610dc68187610be0565b90508181036060830152610dda8186610be0565b90508181036080830152610dee8185610be0565b905081810360a0830152610e028184610be0565b9050979650505050505050565b600060c082019050610e246000830189610d3f565b8181036020830152610e368188610c52565b90508181036040830152610e4a8187610c52565b90508181036060830152610e5e8186610c52565b90508181036080830152610e728185610c52565b905081810360a0830152610e868184610c52565b9050979650505050505050565b6000604051905081810181811067ffffffffffffffff82111715610eb657600080fd5b8060405250919050565b600067ffffffffffffffff821115610ed757600080fd5b601f19601f8301169050602081019050919050565b600081519050919050565b600081519050919050565b600082825260208201905092915050565b600082825260208201905092915050565b600060ff82169050919050565b82818337600083830152505050565b60005b83811015610f5e578082015181840152602081019050610f43565b83811115610f6d576000848401525b50505050565b6000601f19601f8301169050919050565b610f8d81610f24565b8114610f9857600080fd5b5056fea365627a7a7231582089a87a37ee6a35c468def4b2683c92f00e8b033be456035ff77360732924427a6c6578706572696d656e74616cf564736f6c63430005100040",
  "source": "// SPDX-License-Identifier: MIT\npragma solidity >=0.4.22 <0.9.0;\npragma experimental ABIEncoderV2;\n\ncontract Reviews {\n    uint8 public reviewCount = 0;\n\n    struct Review {\n        uint8 id;\n        string authorName;\n        string authorAddress;\n        string content;\n        string date;\n        string place;\n    }\n\n    mapping(uint8 => Review) public reviews;\n\n    event ReviewCreated(\n        uint8 id,\n        string authorName,\n        string authorAddress,\n        string content,\n        string date,\n        string place\n    );\n\n    function createReview(\n        string memory _authorName,\n        string memory _authorAddress,\n        string memory _content,\n        string memory _date,\n        string memory _place\n    ) public {\n        reviewCount++;\n        reviews[reviewCount] = Review(\n            reviewCount,\n            _authorName,\n            _authorAddress,\n            _content,\n            _date,\n            _place\n        );\n        emit ReviewCreated(\n            reviewCount,\n            _authorName,\n            _authorAddress,\n            _content,\n            _date,\n            _place\n        );\n    }\n\n    function getReviewsById(uint8 _id) public view returns (Review memory) {\n        Review storage rev = reviews[_id];\n        return rev;\n    }\n}\n",
  "sourcePath": "C:\\Users\\Jason\\Documents\\VS Code Projects\\delp\\contracts\\Reviews.sol",
  "compiler": {
    "name": "solc",
    "version": "0.5.16+commit.9c3226ce.Emscripten.clang"
  },
  "schemaVersion": "3.4.2",
  "updatedAt": "2021-09-05T10:05:33.252Z",
  "networkType": "ethereum",
  "devdoc": {
    "methods": {}
  },
  "userdoc": {
    "methods": {}
  }
}