{
  "contractName": "Reviews",
  "abi": [
    {
      "inputs": [],
      "payable": false,
      "stateMutability": "nonpayable",
      "type": "constructor"
    },
    {
      "anonymous": false,
      "inputs": [
        {
          "indexed": false,
          "internalType": "uint8",
          "name": "id",
          "type": "uint8"
        },
        {
          "indexed": false,
          "internalType": "string",
          "name": "content",
          "type": "string"
        },
        {
          "indexed": false,
          "internalType": "string",
          "name": "city",
          "type": "string"
        },
        {
          "indexed": false,
          "internalType": "address",
          "name": "author",
          "type": "address"
        }
      ],
      "name": "ReviewCreated",
      "type": "event"
    },
    {
      "constant": true,
      "inputs": [],
      "name": "reviewCount",
      "outputs": [
        {
          "internalType": "uint8",
          "name": "",
          "type": "uint8"
        }
      ],
      "payable": false,
      "stateMutability": "view",
      "type": "function"
    },
    {
      "constant": true,
      "inputs": [
        {
          "internalType": "uint8",
          "name": "",
          "type": "uint8"
        }
      ],
      "name": "reviews",
      "outputs": [
        {
          "internalType": "uint8",
          "name": "id",
          "type": "uint8"
        },
        {
          "internalType": "string",
          "name": "content",
          "type": "string"
        },
        {
          "internalType": "string",
          "name": "city",
          "type": "string"
        },
        {
          "internalType": "address",
          "name": "author",
          "type": "address"
        }
      ],
      "payable": false,
      "stateMutability": "view",
      "type": "function"
    },
    {
      "constant": false,
      "inputs": [
        {
          "internalType": "string",
          "name": "_content",
          "type": "string"
        },
        {
          "internalType": "string",
          "name": "_city",
          "type": "string"
        },
        {
          "internalType": "address",
          "name": "_author",
          "type": "address"
        }
      ],
      "name": "createReview",
      "outputs": [],
      "payable": false,
      "stateMutability": "nonpayable",
      "type": "function"
    },
    {
      "constant": true,
      "inputs": [
        {
          "internalType": "uint8",
          "name": "_id",
          "type": "uint8"
        }
      ],
      "name": "getReviewsById",
      "outputs": [
        {
          "components": [
            {
              "internalType": "uint8",
              "name": "id",
              "type": "uint8"
            },
            {
              "internalType": "string",
              "name": "content",
              "type": "string"
            },
            {
              "internalType": "string",
              "name": "city",
              "type": "string"
            },
            {
              "internalType": "address",
              "name": "author",
              "type": "address"
            }
          ],
          "internalType": "struct Reviews.Review",
          "name": "",
          "type": "tuple"
        }
      ],
      "payable": false,
      "stateMutability": "view",
      "type": "function"
    }
  ],
  "bytecode": "0x608060405260008060006101000a81548160ff021916908360ff1602179055503480156200002c57600080fd5b50620000c76040518060400160405280600d81526020017f4d792046697273742044617070000000000000000000000000000000000000008152506040518060400160405280600c81526020017f4b75616c61204c756d7075720000000000000000000000000000000000000000815250739a06a190c898432142a4e11c02d04cd1e7d92f1e620000cd640100000000026401000000009004565b62000479565b60008081819054906101000a900460ff168092919060010191906101000a81548160ff021916908360ff1602179055505060405180608001604052806000809054906101000a900460ff1660ff1681526020018481526020018381526020018273ffffffffffffffffffffffffffffffffffffffff16815250600160008060009054906101000a900460ff1660ff1660ff16815260200190815260200160002060008201518160000160006101000a81548160ff021916908360ff1602179055506020820151816001019080519060200190620001ac92919062000268565b506040820151816002019080519060200190620001cb92919062000268565b5060608201518160030160006101000a81548173ffffffffffffffffffffffffffffffffffffffff021916908373ffffffffffffffffffffffffffffffffffffffff1602179055509050507f34eaddfe0bda9547da3859f5dc996a0fcc6b7ed504bc35557c7ac38a1879cabe6000809054906101000a900460ff168484846040516200025b94939291906200037a565b60405180910390a1505050565b828054600181600116156101000203166002900490600052602060002090601f016020900481019282601f10620002ab57805160ff1916838001178555620002dc565b82800160010185558215620002dc579182015b82811115620002db578251825591602001919060010190620002be565b5b509050620002eb9190620002ef565b5090565b6200031491905b8082111562000310576000816000905550600101620002f6565b5090565b90565b6200032281620003f1565b82525050565b60006200033582620003d5565b620003418185620003e0565b93506200035381856020860162000432565b6200035e8162000468565b840191505092915050565b620003748162000425565b82525050565b600060808201905062000391600083018762000369565b8181036020830152620003a5818662000328565b90508181036040830152620003bb818562000328565b9050620003cc606083018462000317565b95945050505050565b600081519050919050565b600082825260208201905092915050565b6000620003fe8262000405565b9050919050565b600073ffffffffffffffffffffffffffffffffffffffff82169050919050565b600060ff82169050919050565b60005b838110156200045257808201518184015260208101905062000435565b8381111562000462576000848401525b50505050565b6000601f19601f8301169050919050565b610c0380620004896000396000f3fe608060405234801561001057600080fd5b5060043610610069576000357c010000000000000000000000000000000000000000000000000000000090048063471eff041461006e57806353c79cdc146100a1578063c5d666c3146100bd578063eff5924f146100ed575b600080fd5b61008860048036036100839190810190610812565b61010b565b6040516100989493929190610a1c565b60405180910390f35b6100bb60048036036100b69190810190610793565b610298565b005b6100d760048036036100d29190810190610812565b61042d565b6040516100e4919061098c565b60405180910390f35b6100f561061d565b60405161010291906109ae565b60405180910390f35b60016020528060005260406000206000915090508060000160009054906101000a900460ff1690806001018054600181600116156101000203166002900480601f0160208091040260200160405190810160405280929190818152602001828054600181600116156101000203166002900480156101ca5780601f1061019f576101008083540402835291602001916101ca565b820191906000526020600020905b8154815290600101906020018083116101ad57829003601f168201915b505050505090806002018054600181600116156101000203166002900480601f0160208091040260200160405190810160405280929190818152602001828054600181600116156101000203166002900480156102685780601f1061023d57610100808354040283529160200191610268565b820191906000526020600020905b81548152906001019060200180831161024b57829003601f168201915b5050505050908060030160009054906101000a900473ffffffffffffffffffffffffffffffffffffffff16905084565b60008081819054906101000a900460ff168092919060010191906101000a81548160ff021916908360ff1602179055505060405180608001604052806000809054906101000a900460ff1660ff1681526020018481526020018381526020018273ffffffffffffffffffffffffffffffffffffffff16815250600160008060009054906101000a900460ff1660ff1660ff16815260200190815260200160002060008201518160000160006101000a81548160ff021916908360ff160217905550602082015181600101908051906020019061037592919061062f565b50604082015181600201908051906020019061039292919061062f565b5060608201518160030160006101000a81548173ffffffffffffffffffffffffffffffffffffffff021916908373ffffffffffffffffffffffffffffffffffffffff1602179055509050507f34eaddfe0bda9547da3859f5dc996a0fcc6b7ed504bc35557c7ac38a1879cabe6000809054906101000a900460ff1684848460405161042094939291906109c9565b60405180910390a1505050565b6104356106af565b6000600160008460ff1660ff1681526020019081526020016000209050806040518060800160405290816000820160009054906101000a900460ff1660ff1660ff168152602001600182018054600181600116156101000203166002900480601f0160208091040260200160405190810160405280929190818152602001828054600181600116156101000203166002900480156105145780601f106104e957610100808354040283529160200191610514565b820191906000526020600020905b8154815290600101906020018083116104f757829003601f168201915b50505050508152602001600282018054600181600116156101000203166002900480601f0160208091040260200160405190810160405280929190818152602001828054600181600116156101000203166002900480156105b65780601f1061058b576101008083540402835291602001916105b6565b820191906000526020600020905b81548152906001019060200180831161059957829003601f168201915b505050505081526020016003820160009054906101000a900473ffffffffffffffffffffffffffffffffffffffff1673ffffffffffffffffffffffffffffffffffffffff1673ffffffffffffffffffffffffffffffffffffffff1681525050915050919050565b6000809054906101000a900460ff1681565b828054600181600116156101000203166002900490600052602060002090601f016020900481019282601f1061067057805160ff191683800117855561069e565b8280016001018555821561069e579182015b8281111561069d578251825591602001919060010190610682565b5b5090506106ab91906106f0565b5090565b6040518060800160405280600060ff1681526020016060815260200160608152602001600073ffffffffffffffffffffffffffffffffffffffff1681525090565b61071291905b8082111561070e5760008160009055506001016106f6565b5090565b90565b60008135905061072481610b92565b92915050565b600082601f83011261073b57600080fd5b813561074e61074982610a9c565b610a6f565b9150808252602083016020830185838301111561076a57600080fd5b610775838284610b3f565b50505092915050565b60008135905061078d81610ba9565b92915050565b6000806000606084860312156107a857600080fd5b600084013567ffffffffffffffff8111156107c257600080fd5b6107ce8682870161072a565b935050602084013567ffffffffffffffff8111156107eb57600080fd5b6107f78682870161072a565b925050604061080886828701610715565b9150509250925092565b60006020828403121561082457600080fd5b60006108328482850161077e565b91505092915050565b61084481610b00565b82525050565b61085381610b00565b82525050565b600061086482610ad3565b61086e8185610aef565b935061087e818560208601610b4e565b61088781610b81565b840191505092915050565b600061089d82610ac8565b6108a78185610ade565b93506108b7818560208601610b4e565b6108c081610b81565b840191505092915050565b60006108d682610ac8565b6108e08185610aef565b93506108f0818560208601610b4e565b6108f981610b81565b840191505092915050565b600060808301600083015161091c600086018261096e565b50602083015184820360208601526109348282610892565b9150506040830151848203604086015261094e8282610892565b9150506060830151610963606086018261083b565b508091505092915050565b61097781610b32565b82525050565b61098681610b32565b82525050565b600060208201905081810360008301526109a68184610904565b905092915050565b60006020820190506109c3600083018461097d565b92915050565b60006080820190506109de600083018761097d565b81810360208301526109f08186610859565b90508181036040830152610a048185610859565b9050610a13606083018461084a565b95945050505050565b6000608082019050610a31600083018761097d565b8181036020830152610a4381866108cb565b90508181036040830152610a5781856108cb565b9050610a66606083018461084a565b95945050505050565b6000604051905081810181811067ffffffffffffffff82111715610a9257600080fd5b8060405250919050565b600067ffffffffffffffff821115610ab357600080fd5b601f19601f8301169050602081019050919050565b600081519050919050565b600081519050919050565b600082825260208201905092915050565b600082825260208201905092915050565b6000610b0b82610b12565b9050919050565b600073ffffffffffffffffffffffffffffffffffffffff82169050919050565b600060ff82169050919050565b82818337600083830152505050565b60005b83811015610b6c578082015181840152602081019050610b51565b83811115610b7b576000848401525b50505050565b6000601f19601f8301169050919050565b610b9b81610b00565b8114610ba657600080fd5b50565b610bb281610b32565b8114610bbd57600080fd5b5056fea365627a7a72315820b7ed44767cafc41895ba7c9991779f990e21ce27e3ef77ff21dabd4831ed0d6c6c6578706572696d656e74616cf564736f6c63430005100040",
  "source": "// SPDX-License-Identifier: MIT\npragma solidity >=0.4.22 <0.9.0;\npragma experimental ABIEncoderV2;\n\ncontract Reviews {\n  uint8 public reviewCount = 0;\n\n  struct Review {\n    uint8 id;\n    string content;\n    string city;\n    address author;\n  }\n\n  mapping(uint8 => Review) public reviews;\n  \n  event ReviewCreated(\n    uint8 id,\n    string content,\n    string city,\n    address author\n  );\n\n  constructor() public {\n    createReview(\"My First Dapp\", \"Kuala Lumpur\", 0x9a06A190c898432142a4e11C02D04cd1e7D92F1e);\n  }\n\n  function createReview(string memory _content, string memory _city, address _author) public {\n    reviewCount++;\n    reviews[reviewCount] = Review(reviewCount, _content, _city, _author);\n    emit ReviewCreated(reviewCount, _content, _city, _author);\n  }\n\n\n  function getReviewsById(uint8 _id) public view returns (Review memory) {\n    Review storage rev = reviews[_id];\n    return rev;\n  }\n}\n",
  "sourcePath": "C:\\Users\\Jason\\Documents\\VS Code Projects\\delp\\contracts\\Reviews.sol",
  "compiler": {
    "name": "solc",
    "version": "0.5.16+commit.9c3226ce.Emscripten.clang"
  },
  "schemaVersion": "3.4.2",
  "updatedAt": "2021-08-11T02:33:20.645Z",
  "devdoc": {
    "methods": {}
  },
  "userdoc": {
    "methods": {}
  }
}